{
  "_format": "hh-sol-artifact-1",
  "contractName": "twitter",
  "sourceName": "contracts/twitter.sol",
  "abi": [
    {
      "anonymous": false,
      "inputs": [
        {
          "indexed": false,
          "internalType": "string",
          "name": "tweetId",
          "type": "string"
        },
        {
          "indexed": false,
          "internalType": "address",
          "name": "commenter",
          "type": "address"
        },
        {
          "indexed": false,
          "internalType": "string",
          "name": "commentId",
          "type": "string"
        }
      ],
      "name": "AddComment",
      "type": "event"
    },
    {
      "anonymous": false,
      "inputs": [
        {
          "indexed": false,
          "internalType": "address",
          "name": "recipient",
          "type": "address"
        },
        {
          "indexed": false,
          "internalType": "string",
          "name": "tweetId",
          "type": "string"
        }
      ],
      "name": "AddTweet",
      "type": "event"
    },
    {
      "anonymous": false,
      "inputs": [
        {
          "indexed": false,
          "internalType": "string",
          "name": "tweetId",
          "type": "string"
        },
        {
          "indexed": false,
          "internalType": "string",
          "name": "commentId",
          "type": "string"
        },
        {
          "indexed": false,
          "internalType": "bool",
          "name": "isDeleted",
          "type": "bool"
        }
      ],
      "name": "DeleteComment",
      "type": "event"
    },
    {
      "anonymous": false,
      "inputs": [
        {
          "indexed": false,
          "internalType": "string",
          "name": "tweetId",
          "type": "string"
        },
        {
          "indexed": false,
          "internalType": "bool",
          "name": "isDeleted",
          "type": "bool"
        }
      ],
      "name": "DeleteTweet",
      "type": "event"
    },
    {
      "anonymous": false,
      "inputs": [
        {
          "indexed": false,
          "internalType": "string",
          "name": "tweetId",
          "type": "string"
        },
        {
          "indexed": false,
          "internalType": "string",
          "name": "commentId",
          "type": "string"
        },
        {
          "indexed": false,
          "internalType": "bool",
          "name": "isLiked",
          "type": "bool"
        },
        {
          "indexed": false,
          "internalType": "uint256",
          "name": "likeCount",
          "type": "uint256"
        }
      ],
      "name": "ToggleCommentLike",
      "type": "event"
    },
    {
      "anonymous": false,
      "inputs": [
        {
          "indexed": false,
          "internalType": "string",
          "name": "tweetId",
          "type": "string"
        },
        {
          "indexed": false,
          "internalType": "bool",
          "name": "isLiked",
          "type": "bool"
        },
        {
          "indexed": false,
          "internalType": "uint256",
          "name": "likeCount",
          "type": "uint256"
        }
      ],
      "name": "ToggleLike",
      "type": "event"
    },
    {
      "inputs": [
        {
          "internalType": "string",
          "name": "tweetId",
          "type": "string"
        },
        {
          "internalType": "string",
          "name": "commentId",
          "type": "string"
        },
        {
          "internalType": "string",
          "name": "commentText",
          "type": "string"
        }
      ],
      "name": "addComment",
      "outputs": [],
      "stateMutability": "nonpayable",
      "type": "function"
    },
    {
      "inputs": [
        {
          "internalType": "string",
          "name": "id",
          "type": "string"
        },
        {
          "internalType": "string",
          "name": "tweetText",
          "type": "string"
        },
        {
          "internalType": "bool",
          "name": "isDeleted",
          "type": "bool"
        },
        {
          "internalType": "uint256",
          "name": "likeCount",
          "type": "uint256"
        },
        {
          "internalType": "bool",
          "name": "isLiked",
          "type": "bool"
        }
      ],
      "name": "addTweet",
      "outputs": [],
      "stateMutability": "nonpayable",
      "type": "function"
    },
    {
      "inputs": [
        {
          "internalType": "string",
          "name": "tweetId",
          "type": "string"
        },
        {
          "internalType": "string",
          "name": "commentId",
          "type": "string"
        },
        {
          "internalType": "bool",
          "name": "isDeleted",
          "type": "bool"
        }
      ],
      "name": "deleteComment",
      "outputs": [],
      "stateMutability": "nonpayable",
      "type": "function"
    },
    {
      "inputs": [
        {
          "internalType": "string",
          "name": "tweetId",
          "type": "string"
        },
        {
          "internalType": "bool",
          "name": "isDeleted",
          "type": "bool"
        }
      ],
      "name": "deleteTweet",
      "outputs": [],
      "stateMutability": "nonpayable",
      "type": "function"
    },
    {
      "inputs": [],
      "name": "getAllTweets",
      "outputs": [
        {
          "components": [
            {
              "internalType": "string",
              "name": "id",
              "type": "string"
            },
            {
              "internalType": "address",
              "name": "username",
              "type": "address"
            },
            {
              "internalType": "string",
              "name": "tweetText",
              "type": "string"
            },
            {
              "internalType": "bool",
              "name": "isDeleted",
              "type": "bool"
            },
            {
              "internalType": "uint256",
              "name": "likeCount",
              "type": "uint256"
            },
            {
              "internalType": "bool",
              "name": "isLiked",
              "type": "bool"
            },
            {
              "internalType": "uint256",
              "name": "timestamp",
              "type": "uint256"
            }
          ],
          "internalType": "struct twitter.Tweet[]",
          "name": "",
          "type": "tuple[]"
        }
      ],
      "stateMutability": "view",
      "type": "function"
    },
    {
      "inputs": [
        {
          "internalType": "string",
          "name": "tweetId",
          "type": "string"
        }
      ],
      "name": "getCommentsByTweetId",
      "outputs": [
        {
          "components": [
            {
              "internalType": "string",
              "name": "id",
              "type": "string"
            },
            {
              "internalType": "string",
              "name": "tweetId",
              "type": "string"
            },
            {
              "internalType": "address",
              "name": "commenter",
              "type": "address"
            },
            {
              "internalType": "string",
              "name": "commentText",
              "type": "string"
            },
            {
              "internalType": "bool",
              "name": "isDeleted",
              "type": "bool"
            },
            {
              "internalType": "uint256",
              "name": "likeCount",
              "type": "uint256"
            },
            {
              "internalType": "bool",
              "name": "isLiked",
              "type": "bool"
            },
            {
              "internalType": "uint256",
              "name": "timestamp",
              "type": "uint256"
            }
          ],
          "internalType": "struct twitter.Comment[]",
          "name": "",
          "type": "tuple[]"
        }
      ],
      "stateMutability": "view",
      "type": "function"
    },
    {
      "inputs": [],
      "name": "getMyTweets",
      "outputs": [
        {
          "components": [
            {
              "internalType": "string",
              "name": "id",
              "type": "string"
            },
            {
              "internalType": "address",
              "name": "username",
              "type": "address"
            },
            {
              "internalType": "string",
              "name": "tweetText",
              "type": "string"
            },
            {
              "internalType": "bool",
              "name": "isDeleted",
              "type": "bool"
            },
            {
              "internalType": "uint256",
              "name": "likeCount",
              "type": "uint256"
            },
            {
              "internalType": "bool",
              "name": "isLiked",
              "type": "bool"
            },
            {
              "internalType": "uint256",
              "name": "timestamp",
              "type": "uint256"
            }
          ],
          "internalType": "struct twitter.Tweet[]",
          "name": "",
          "type": "tuple[]"
        }
      ],
      "stateMutability": "view",
      "type": "function"
    },
    {
      "inputs": [
        {
          "internalType": "string",
          "name": "tweetId",
          "type": "string"
        }
      ],
      "name": "getTweet",
      "outputs": [
        {
          "components": [
            {
              "internalType": "string",
              "name": "id",
              "type": "string"
            },
            {
              "internalType": "address",
              "name": "username",
              "type": "address"
            },
            {
              "internalType": "string",
              "name": "tweetText",
              "type": "string"
            },
            {
              "internalType": "bool",
              "name": "isDeleted",
              "type": "bool"
            },
            {
              "internalType": "uint256",
              "name": "likeCount",
              "type": "uint256"
            },
            {
              "internalType": "bool",
              "name": "isLiked",
              "type": "bool"
            },
            {
              "internalType": "uint256",
              "name": "timestamp",
              "type": "uint256"
            }
          ],
          "internalType": "struct twitter.Tweet",
          "name": "",
          "type": "tuple"
        },
        {
          "components": [
            {
              "internalType": "string",
              "name": "id",
              "type": "string"
            },
            {
              "internalType": "string",
              "name": "tweetId",
              "type": "string"
            },
            {
              "internalType": "address",
              "name": "commenter",
              "type": "address"
            },
            {
              "internalType": "string",
              "name": "commentText",
              "type": "string"
            },
            {
              "internalType": "bool",
              "name": "isDeleted",
              "type": "bool"
            },
            {
              "internalType": "uint256",
              "name": "likeCount",
              "type": "uint256"
            },
            {
              "internalType": "bool",
              "name": "isLiked",
              "type": "bool"
            },
            {
              "internalType": "uint256",
              "name": "timestamp",
              "type": "uint256"
            }
          ],
          "internalType": "struct twitter.Comment[]",
          "name": "",
          "type": "tuple[]"
        }
      ],
      "stateMutability": "view",
      "type": "function"
    },
    {
      "inputs": [
        {
          "internalType": "string",
          "name": "tweetId",
          "type": "string"
        },
        {
          "internalType": "string",
          "name": "commentId",
          "type": "string"
        }
      ],
      "name": "toggleCommentLike",
      "outputs": [],
      "stateMutability": "nonpayable",
      "type": "function"
    },
    {
      "inputs": [
        {
          "internalType": "string",
          "name": "tweetId",
          "type": "string"
        }
      ],
      "name": "toggleLike",
      "outputs": [],
      "stateMutability": "nonpayable",
      "type": "function"
    }
  ],
  "bytecode": "0x608060405234801561001057600080fd5b50613047806100206000396000f3fe608060405234801561001057600080fd5b506004361061009e5760003560e01c80638a539df2116100665780638a539df2146101315780639007f26e14610162578063aefedbc21461017e578063c841501d1461019c578063ebd1ca05146101b85761009e565b806339b92d17146100a357806353256135146100bf578063740e04c9146100dd5780637cadffb8146100f95780637e459f5d14610115575b600080fd5b6100bd60048036038101906100b89190611edc565b6101e8565b005b6100c7610433565b6040516100d491906121dc565b60405180910390f35b6100f760048036038101906100f291906121fe565b610710565b005b610113600480360381019061010e919061229f565b61085d565b005b61012f600480360381019061012a9190612352565b610a3b565b005b61014b600480360381019061014691906121fe565b610bb6565b6040516101599291906125d1565b60405180910390f35b61017c60048036038101906101779190612608565b61118f565b005b610186611293565b60405161019391906121dc565b60405180910390f35b6101b660048036038101906101b19190612693565b6116b9565b005b6101d260048036038101906101cd91906121fe565b61183c565b6040516101df919061270b565b60405180910390f35b60006101f384611c30565b9050600080549050811061023c576040517f08c379a00000000000000000000000000000000000000000000000000000000081526004016102339061278a565b60405180910390fd5b60016040518061010001604052808581526020018681526020013373ffffffffffffffffffffffffffffffffffffffff1681526020018481526020016000151581526020016000815260200160001515815260200142815250908060018154018082558091505060019003906000526020600020906008020160009091909190915060008201518160000190816102d391906129b6565b5060208201518160010190816102e991906129b6565b5060408201518160020160006101000a81548173ffffffffffffffffffffffffffffffffffffffff021916908373ffffffffffffffffffffffffffffffffffffffff160217905550606082015181600301908161034691906129b6565b5060808201518160040160006101000a81548160ff02191690831515021790555060a0820151816005015560c08201518160060160006101000a81548160ff02191690831515021790555060e0820151816007015550506000600180805490506103b09190612ab7565b9050806003866040516103c39190612b27565b9081526020016040518091039020856040516103df9190612b27565b9081526020016040518091039020819055507f53c8fe2ff48ed734fb55d3c4c67a072328107942d8f959546594f5836fb109be85338660405161042493929190612b86565b60405180910390a15050505050565b60606000808054905067ffffffffffffffff81111561045557610454611db1565b5b60405190808252806020026020018201604052801561048e57816020015b61047b611ccc565b8152602001906001900390816104735790505b5090506000805b60008054905081101561070457600081815481106104b6576104b5612bcb565b5b906000526020600020906007020160030160009054906101000a900460ff166106f757600081815481106104ed576104ec612bcb565b5b90600052602060002090600702016040518060e0016040529081600082018054610516906127d9565b80601f0160208091040260200160405190810160405280929190818152602001828054610542906127d9565b801561058f5780601f106105645761010080835404028352916020019161058f565b820191906000526020600020905b81548152906001019060200180831161057257829003601f168201915b505050505081526020016001820160009054906101000a900473ffffffffffffffffffffffffffffffffffffffff1673ffffffffffffffffffffffffffffffffffffffff1673ffffffffffffffffffffffffffffffffffffffff1681526020016002820180546105fe906127d9565b80601f016020809104026020016040519081016040528092919081815260200182805461062a906127d9565b80156106775780601f1061064c57610100808354040283529160200191610677565b820191906000526020600020905b81548152906001019060200180831161065a57829003601f168201915b505050505081526020016003820160009054906101000a900460ff16151515158152602001600482015481526020016005820160009054906101000a900460ff161515151581526020016006820154815250508383815181106106dd576106dc612bcb565b5b602002602001018190525081806106f390612bfa565b9250505b8080600101915050610495565b50808252819250505090565b600061071b82611c30565b90506000805490508110610764576040517f08c379a000000000000000000000000000000000000000000000000000000000815260040161075b9061278a565b60405180910390fd5b600080828154811061077957610778612bcb565b5b906000526020600020906007020190508060050160009054906101000a900460ff16158160050160006101000a81548160ff0219169083151502179055508060050160009054906101000a900460ff16156107ed578060040160008154809291906107e390612bfa565b9190505550610808565b80600401600081548092919061080290612c42565b91905055505b7fb37151d555ea052711faea4c752bbc3099dee587b3f1b549172289a74d565b7b838260050160009054906101000a900460ff16836004015460405161085093929190612c89565b60405180910390a1505050565b60006040518060e001604052808781526020013373ffffffffffffffffffffffffffffffffffffffff1681526020018681526020018515158152602001848152602001831515815260200142815250908060018154018082558091505060019003906000526020600020906007020160009091909190915060008201518160000190816108ea91906129b6565b5060208201518160010160006101000a81548173ffffffffffffffffffffffffffffffffffffffff021916908373ffffffffffffffffffffffffffffffffffffffff160217905550604082015181600201908161094791906129b6565b5060608201518160030160006101000a81548160ff0219169083151502179055506080820151816004015560a08201518160050160006101000a81548160ff02191690831515021790555060c082015181600601555050336002866040516109af9190612b27565b908152602001604051809103902060006101000a81548173ffffffffffffffffffffffffffffffffffffffff021916908373ffffffffffffffffffffffffffffffffffffffff1602179055507f384d2612cd710127d33d3726c602f74e86827f520c54f4a9340f5ef8cb0fffb53386604051610a2c929190612cc7565b60405180910390a15050505050565b3373ffffffffffffffffffffffffffffffffffffffff16600283604051610a629190612b27565b908152602001604051809103902060009054906101000a900473ffffffffffffffffffffffffffffffffffffffff1673ffffffffffffffffffffffffffffffffffffffff1614610ae7576040517f08c379a0000000000000000000000000000000000000000000000000000000008152600401610ade90612d69565b60405180910390fd5b6000610af283611c30565b90506000805490508110610b3b576040517f08c379a0000000000000000000000000000000000000000000000000000000008152600401610b329061278a565b60405180910390fd5b8160008281548110610b5057610b4f612bcb565b5b906000526020600020906007020160030160006101000a81548160ff0219169083151502179055507f554848bcd4ab3024f87597f8e4208caa8a9c7dcd571119088e8320aa7ba7d28a8383604051610ba9929190612d89565b60405180910390a1505050565b610bbe611ccc565b60606000610bcb84611c30565b90506000805490508110610c14576040517f08c379a0000000000000000000000000000000000000000000000000000000008152600401610c0b9061278a565b60405180910390fd5b6000808281548110610c2957610c28612bcb565b5b90600052602060002090600702016040518060e0016040529081600082018054610c52906127d9565b80601f0160208091040260200160405190810160405280929190818152602001828054610c7e906127d9565b8015610ccb5780601f10610ca057610100808354040283529160200191610ccb565b820191906000526020600020905b815481529060010190602001808311610cae57829003601f168201915b505050505081526020016001820160009054906101000a900473ffffffffffffffffffffffffffffffffffffffff1673ffffffffffffffffffffffffffffffffffffffff1673ffffffffffffffffffffffffffffffffffffffff168152602001600282018054610d3a906127d9565b80601f0160208091040260200160405190810160405280929190818152602001828054610d66906127d9565b8015610db35780601f10610d8857610100808354040283529160200191610db3565b820191906000526020600020905b815481529060010190602001808311610d9657829003601f168201915b505050505081526020016003820160009054906101000a900460ff16151515158152602001600482015481526020016005820160009054906101000a900460ff1615151515815260200160068201548152505090506000600180549050905060008167ffffffffffffffff811115610e2e57610e2d611db1565b5b604051908082528060200260200182016040528015610e6757816020015b610e54611d23565b815260200190600190039081610e4c5790505b5090506000805b8381101561117b57888051906020012060018281548110610e9257610e91612bcb565b5b9060005260206000209060080201600001604051610eb09190612e5c565b60405180910390200361116e5760018181548110610ed157610ed0612bcb565b5b906000526020600020906008020160405180610100016040529081600082018054610efb906127d9565b80601f0160208091040260200160405190810160405280929190818152602001828054610f27906127d9565b8015610f745780601f10610f4957610100808354040283529160200191610f74565b820191906000526020600020905b815481529060010190602001808311610f5757829003601f168201915b50505050508152602001600182018054610f8d906127d9565b80601f0160208091040260200160405190810160405280929190818152602001828054610fb9906127d9565b80156110065780601f10610fdb57610100808354040283529160200191611006565b820191906000526020600020905b815481529060010190602001808311610fe957829003601f168201915b505050505081526020016002820160009054906101000a900473ffffffffffffffffffffffffffffffffffffffff1673ffffffffffffffffffffffffffffffffffffffff1673ffffffffffffffffffffffffffffffffffffffff168152602001600382018054611075906127d9565b80601f01602080910402602001604051908101604052809291908181526020018280546110a1906127d9565b80156110ee5780601f106110c3576101008083540402835291602001916110ee565b820191906000526020600020905b8154815290600101906020018083116110d157829003601f168201915b505050505081526020016004820160009054906101000a900460ff16151515158152602001600582015481526020016006820160009054906101000a900460ff1615151515815260200160078201548152505083838151811061115457611153612bcb565b5b6020026020010181905250818061116a90612bfa565b9250505b8080600101915050610e6e565b508082528382965096505050505050915091565b60006003846040516111a19190612b27565b9081526020016040518091039020836040516111bd9190612b27565b90815260200160405180910390205490506001805490508110611215576040517f08c379a000000000000000000000000000000000000000000000000000000000815260040161120c90612ebf565b60405180910390fd5b816001828154811061122a57611229612bcb565b5b906000526020600020906008020160040160006101000a81548160ff0219169083151502179055507f04cc514109c1a75c0a0a56b2194efc65d8584518feaeccfb22de5c57b4a0918984848460405161128593929190612edf565b60405180910390a150505050565b6060600080808054905067ffffffffffffffff8111156112b6576112b5611db1565b5b6040519080825280602002602001820160405280156112ef57816020015b6112dc611ccc565b8152602001906001900390816112d45790505b50905060005b600080549050811015611605573373ffffffffffffffffffffffffffffffffffffffff1660026000838154811061132f5761132e612bcb565b5b906000526020600020906007020160000160405161134d9190612fa7565b908152602001604051809103902060009054906101000a900473ffffffffffffffffffffffffffffffffffffffff1673ffffffffffffffffffffffffffffffffffffffff161480156113d5575060001515600082815481106113b2576113b1612bcb565b5b906000526020600020906007020160030160009054906101000a900460ff161515145b156115f857600081815481106113ee576113ed612bcb565b5b90600052602060002090600702016040518060e0016040529081600082018054611417906127d9565b80601f0160208091040260200160405190810160405280929190818152602001828054611443906127d9565b80156114905780601f1061146557610100808354040283529160200191611490565b820191906000526020600020905b81548152906001019060200180831161147357829003601f168201915b505050505081526020016001820160009054906101000a900473ffffffffffffffffffffffffffffffffffffffff1673ffffffffffffffffffffffffffffffffffffffff1673ffffffffffffffffffffffffffffffffffffffff1681526020016002820180546114ff906127d9565b80601f016020809104026020016040519081016040528092919081815260200182805461152b906127d9565b80156115785780601f1061154d57610100808354040283529160200191611578565b820191906000526020600020905b81548152906001019060200180831161155b57829003601f168201915b505050505081526020016003820160009054906101000a900460ff16151515158152602001600482015481526020016005820160009054906101000a900460ff161515151581526020016006820154815250508284815181106115de576115dd612bcb565b5b602002602001018190525082806115f490612bfa565b9350505b80806001019150506112f5565b5060008267ffffffffffffffff81111561162257611621611db1565b5b60405190808252806020026020018201604052801561165b57816020015b611648611ccc565b8152602001906001900390816116405790505b50905060005b838110156116af5782818151811061167c5761167b612bcb565b5b602002602001015182828151811061169757611696612bcb565b5b60200260200101819052508080600101915050611661565b5080935050505090565b60006003836040516116cb9190612b27565b9081526020016040518091039020826040516116e79190612b27565b9081526020016040518091039020549050600180549050811061173f576040517f08c379a000000000000000000000000000000000000000000000000000000000815260040161173690612ebf565b60405180910390fd5b60006001828154811061175557611754612bcb565b5b906000526020600020906008020190508060060160009054906101000a900460ff16158160060160006101000a81548160ff0219169083151502179055508060060160009054906101000a900460ff16156117c9578060050160008154809291906117bf90612bfa565b91905055506117e4565b8060050160008154809291906117de90612c42565b91905055505b7fd7b73b8d5f3939d9c14bd79cd38a8701b8d61dbedd2fae84be511009e859462484848360060160009054906101000a900460ff16846005015460405161182e9493929190612fbe565b60405180910390a150505050565b6060600060018054905090506000805b828110156118b7578480519060200120600182815481106118705761186f612bcb565b5b906000526020600020906008020160010160405161188e9190612e5c565b6040518091039020036118aa5781806118a690612bfa565b9250505b808060010191505061184c565b5060008167ffffffffffffffff8111156118d4576118d3611db1565b5b60405190808252806020026020018201604052801561190d57816020015b6118fa611d23565b8152602001906001900390816118f25790505b5090506000915060005b83811015611c245785805190602001206001828154811061193b5761193a612bcb565b5b90600052602060002090600802016001016040516119599190612e5c565b604051809103902003611c17576001818154811061197a57611979612bcb565b5b9060005260206000209060080201604051806101000160405290816000820180546119a4906127d9565b80601f01602080910402602001604051908101604052809291908181526020018280546119d0906127d9565b8015611a1d5780601f106119f257610100808354040283529160200191611a1d565b820191906000526020600020905b815481529060010190602001808311611a0057829003601f168201915b50505050508152602001600182018054611a36906127d9565b80601f0160208091040260200160405190810160405280929190818152602001828054611a62906127d9565b8015611aaf5780601f10611a8457610100808354040283529160200191611aaf565b820191906000526020600020905b815481529060010190602001808311611a9257829003601f168201915b505050505081526020016002820160009054906101000a900473ffffffffffffffffffffffffffffffffffffffff1673ffffffffffffffffffffffffffffffffffffffff1673ffffffffffffffffffffffffffffffffffffffff168152602001600382018054611b1e906127d9565b80601f0160208091040260200160405190810160405280929190818152602001828054611b4a906127d9565b8015611b975780601f10611b6c57610100808354040283529160200191611b97565b820191906000526020600020905b815481529060010190602001808311611b7a57829003601f168201915b505050505081526020016004820160009054906101000a900460ff16151515158152602001600582015481526020016006820160009054906101000a900460ff16151515158152602001600782015481525050828481518110611bfd57611bfc612bcb565b5b60200260200101819052508280611c1390612bfa565b9350505b8080600101915050611917565b50809350505050919050565b600080600090505b600080549050811015611ca257828051906020012060008281548110611c6157611c60612bcb565b5b9060005260206000209060070201600001604051611c7f9190612e5c565b604051809103902003611c955780915050611cc7565b8080600101915050611c38565b507fffffffffffffffffffffffffffffffffffffffffffffffffffffffffffffffff90505b919050565b6040518060e0016040528060608152602001600073ffffffffffffffffffffffffffffffffffffffff1681526020016060815260200160001515815260200160008152602001600015158152602001600081525090565b6040518061010001604052806060815260200160608152602001600073ffffffffffffffffffffffffffffffffffffffff1681526020016060815260200160001515815260200160008152602001600015158152602001600081525090565b6000604051905090565b600080fd5b600080fd5b600080fd5b600080fd5b6000601f19601f8301169050919050565b7f4e487b7100000000000000000000000000000000000000000000000000000000600052604160045260246000fd5b611de982611da0565b810181811067ffffffffffffffff82111715611e0857611e07611db1565b5b80604052505050565b6000611e1b611d82565b9050611e278282611de0565b919050565b600067ffffffffffffffff821115611e4757611e46611db1565b5b611e5082611da0565b9050602081019050919050565b82818337600083830152505050565b6000611e7f611e7a84611e2c565b611e11565b905082815260208101848484011115611e9b57611e9a611d9b565b5b611ea6848285611e5d565b509392505050565b600082601f830112611ec357611ec2611d96565b5b8135611ed3848260208601611e6c565b91505092915050565b600080600060608486031215611ef557611ef4611d8c565b5b600084013567ffffffffffffffff811115611f1357611f12611d91565b5b611f1f86828701611eae565b935050602084013567ffffffffffffffff811115611f4057611f3f611d91565b5b611f4c86828701611eae565b925050604084013567ffffffffffffffff811115611f6d57611f6c611d91565b5b611f7986828701611eae565b9150509250925092565b600081519050919050565b600082825260208201905092915050565b6000819050602082019050919050565b600081519050919050565b600082825260208201905092915050565b60005b83811015611fe9578082015181840152602081019050611fce565b60008484015250505050565b600061200082611faf565b61200a8185611fba565b935061201a818560208601611fcb565b61202381611da0565b840191505092915050565b600073ffffffffffffffffffffffffffffffffffffffff82169050919050565b60006120598261202e565b9050919050565b6120698161204e565b82525050565b60008115159050919050565b6120848161206f565b82525050565b6000819050919050565b61209d8161208a565b82525050565b600060e08301600083015184820360008601526120c08282611ff5565b91505060208301516120d56020860182612060565b50604083015184820360408601526120ed8282611ff5565b9150506060830151612102606086018261207b565b5060808301516121156080860182612094565b5060a083015161212860a086018261207b565b5060c083015161213b60c0860182612094565b508091505092915050565b600061215283836120a3565b905092915050565b6000602082019050919050565b600061217282611f83565b61217c8185611f8e565b93508360208202850161218e85611f9f565b8060005b858110156121ca57848403895281516121ab8582612146565b94506121b68361215a565b925060208a01995050600181019050612192565b50829750879550505050505092915050565b600060208201905081810360008301526121f68184612167565b905092915050565b60006020828403121561221457612213611d8c565b5b600082013567ffffffffffffffff81111561223257612231611d91565b5b61223e84828501611eae565b91505092915050565b6122508161206f565b811461225b57600080fd5b50565b60008135905061226d81612247565b92915050565b61227c8161208a565b811461228757600080fd5b50565b60008135905061229981612273565b92915050565b600080600080600060a086880312156122bb576122ba611d8c565b5b600086013567ffffffffffffffff8111156122d9576122d8611d91565b5b6122e588828901611eae565b955050602086013567ffffffffffffffff81111561230657612305611d91565b5b61231288828901611eae565b94505060406123238882890161225e565b93505060606123348882890161228a565b92505060806123458882890161225e565b9150509295509295909350565b6000806040838503121561236957612368611d8c565b5b600083013567ffffffffffffffff81111561238757612386611d91565b5b61239385828601611eae565b92505060206123a48582860161225e565b9150509250929050565b600060e08301600083015184820360008601526123cb8282611ff5565b91505060208301516123e06020860182612060565b50604083015184820360408601526123f88282611ff5565b915050606083015161240d606086018261207b565b5060808301516124206080860182612094565b5060a083015161243360a086018261207b565b5060c083015161244660c0860182612094565b508091505092915050565b600081519050919050565b600082825260208201905092915050565b6000819050602082019050919050565b600061010083016000830151848203600086015261249b8282611ff5565b915050602083015184820360208601526124b58282611ff5565b91505060408301516124ca6040860182612060565b50606083015184820360608601526124e28282611ff5565b91505060808301516124f7608086018261207b565b5060a083015161250a60a0860182612094565b5060c083015161251d60c086018261207b565b5060e083015161253060e0860182612094565b508091505092915050565b6000612547838361247d565b905092915050565b6000602082019050919050565b600061256782612451565b612571818561245c565b9350836020820285016125838561246d565b8060005b858110156125bf57848403895281516125a0858261253b565b94506125ab8361254f565b925060208a01995050600181019050612587565b50829750879550505050505092915050565b600060408201905081810360008301526125eb81856123ae565b905081810360208301526125ff818461255c565b90509392505050565b60008060006060848603121561262157612620611d8c565b5b600084013567ffffffffffffffff81111561263f5761263e611d91565b5b61264b86828701611eae565b935050602084013567ffffffffffffffff81111561266c5761266b611d91565b5b61267886828701611eae565b92505060406126898682870161225e565b9150509250925092565b600080604083850312156126aa576126a9611d8c565b5b600083013567ffffffffffffffff8111156126c8576126c7611d91565b5b6126d485828601611eae565b925050602083013567ffffffffffffffff8111156126f5576126f4611d91565b5b61270185828601611eae565b9150509250929050565b60006020820190508181036000830152612725818461255c565b905092915050565b600082825260208201905092915050565b7f547765657420646f6573206e6f74206578697374000000000000000000000000600082015250565b600061277460148361272d565b915061277f8261273e565b602082019050919050565b600060208201905081810360008301526127a381612767565b9050919050565b7f4e487b7100000000000000000000000000000000000000000000000000000000600052602260045260246000fd5b600060028204905060018216806127f157607f821691505b602082108103612804576128036127aa565b5b50919050565b60008190508160005260206000209050919050565b60006020601f8301049050919050565b600082821b905092915050565b60006008830261286c7fffffffffffffffffffffffffffffffffffffffffffffffffffffffffffffffff8261282f565b612876868361282f565b95508019841693508086168417925050509392505050565b6000819050919050565b60006128b36128ae6128a98461208a565b61288e565b61208a565b9050919050565b6000819050919050565b6128cd83612898565b6128e16128d9826128ba565b84845461283c565b825550505050565b600090565b6128f66128e9565b6129018184846128c4565b505050565b5b818110156129255761291a6000826128ee565b600181019050612907565b5050565b601f82111561296a5761293b8161280a565b6129448461281f565b81016020851015612953578190505b61296761295f8561281f565b830182612906565b50505b505050565b600082821c905092915050565b600061298d6000198460080261296f565b1980831691505092915050565b60006129a6838361297c565b9150826002028217905092915050565b6129bf82611faf565b67ffffffffffffffff8111156129d8576129d7611db1565b5b6129e282546127d9565b6129ed828285612929565b600060209050601f831160018114612a205760008415612a0e578287015190505b612a18858261299a565b865550612a80565b601f198416612a2e8661280a565b60005b82811015612a5657848901518255600182019150602085019450602081019050612a31565b86831015612a735784890151612a6f601f89168261297c565b8355505b6001600288020188555050505b505050505050565b7f4e487b7100000000000000000000000000000000000000000000000000000000600052601160045260246000fd5b6000612ac28261208a565b9150612acd8361208a565b9250828203905081811115612ae557612ae4612a88565b5b92915050565b600081905092915050565b6000612b0182611faf565b612b0b8185612aeb565b9350612b1b818560208601611fcb565b80840191505092915050565b6000612b338284612af6565b915081905092915050565b6000612b4982611faf565b612b53818561272d565b9350612b63818560208601611fcb565b612b6c81611da0565b840191505092915050565b612b808161204e565b82525050565b60006060820190508181036000830152612ba08186612b3e565b9050612baf6020830185612b77565b8181036040830152612bc18184612b3e565b9050949350505050565b7f4e487b7100000000000000000000000000000000000000000000000000000000600052603260045260246000fd5b6000612c058261208a565b91507fffffffffffffffffffffffffffffffffffffffffffffffffffffffffffffffff8203612c3757612c36612a88565b5b600182019050919050565b6000612c4d8261208a565b915060008203612c6057612c5f612a88565b5b600182039050919050565b612c748161206f565b82525050565b612c838161208a565b82525050565b60006060820190508181036000830152612ca38186612b3e565b9050612cb26020830185612c6b565b612cbf6040830184612c7a565b949350505050565b6000604082019050612cdc6000830185612b77565b8181036020830152612cee8184612b3e565b90509392505050565b7f596f7520617265206e6f7420746865206f776e6572206f66207468697320747760008201527f6565740000000000000000000000000000000000000000000000000000000000602082015250565b6000612d5360238361272d565b9150612d5e82612cf7565b604082019050919050565b60006020820190508181036000830152612d8281612d46565b9050919050565b60006040820190508181036000830152612da38185612b3e565b9050612db26020830184612c6b565b9392505050565b600081905092915050565b60008190508160005260206000209050919050565b60008154612de6816127d9565b612df08186612db9565b94506001821660008114612e0b5760018114612e2057612e53565b60ff1983168652811515820286019350612e53565b612e2985612dc4565b60005b83811015612e4b57815481890152600182019150602081019050612e2c565b838801955050505b50505092915050565b6000612e688284612dd9565b915081905092915050565b7f436f6d6d656e7420646f6573206e6f7420657869737400000000000000000000600082015250565b6000612ea960168361272d565b9150612eb482612e73565b602082019050919050565b60006020820190508181036000830152612ed881612e9c565b9050919050565b60006060820190508181036000830152612ef98186612b3e565b90508181036020830152612f0d8185612b3e565b9050612f1c6040830184612c6b565b949350505050565b60008154612f31816127d9565b612f3b8186612aeb565b94506001821660008114612f565760018114612f6b57612f9e565b60ff1983168652811515820286019350612f9e565b612f748561280a565b60005b83811015612f9657815481890152600182019150602081019050612f77565b838801955050505b50505092915050565b6000612fb38284612f24565b915081905092915050565b60006080820190508181036000830152612fd88187612b3e565b90508181036020830152612fec8186612b3e565b9050612ffb6040830185612c6b565b6130086060830184612c7a565b9594505050505056fea2646970667358221220cd5f175a6810ba2fdf72d5f4895a9a0c3e6533c697c2fbd644071ae0cb4125b064736f6c63430008180033",
  "linkReferences": {},
  "deployedLinkReferences": {}
}