{
  "_format": "hh-sol-artifact-1",
  "contractName": "twitter",
  "sourceName": "contracts/twitter.sol",
  "abi": [
    {
      "anonymous": false,
      "inputs": [
        {
          "indexed": false,
          "internalType": "address",
          "name": "recipient",
          "type": "address"
        },
        {
          "indexed": false,
          "internalType": "uint256",
          "name": "tweetId",
          "type": "uint256"
        }
      ],
      "name": "AddTweet",
      "type": "event"
    },
    {
      "anonymous": false,
      "inputs": [
        {
          "indexed": false,
          "internalType": "uint256",
          "name": "tweetId",
          "type": "uint256"
        },
        {
          "indexed": false,
          "internalType": "bool",
          "name": "isDeleted",
          "type": "bool"
        }
      ],
      "name": "DeleteTweet",
      "type": "event"
    },
    {
      "anonymous": false,
      "inputs": [
        {
          "indexed": false,
          "internalType": "uint256",
          "name": "tweetId",
          "type": "uint256"
        },
        {
          "indexed": false,
          "internalType": "bool",
          "name": "isLiked",
          "type": "bool"
        },
        {
          "indexed": false,
          "internalType": "uint256",
          "name": "likeCount",
          "type": "uint256"
        }
      ],
      "name": "ToggleLike",
      "type": "event"
    },
    {
      "inputs": [
        {
          "internalType": "string",
          "name": "tweetText",
          "type": "string"
        },
        {
          "internalType": "bool",
          "name": "isDeleted",
          "type": "bool"
        },
        {
          "internalType": "uint256",
          "name": "likeCount",
          "type": "uint256"
        },
        {
          "internalType": "bool",
          "name": "isLiked",
          "type": "bool"
        }
      ],
      "name": "addTweet",
      "outputs": [],
      "stateMutability": "nonpayable",
      "type": "function"
    },
    {
      "inputs": [
        {
          "internalType": "uint256",
          "name": "tweetId",
          "type": "uint256"
        },
        {
          "internalType": "bool",
          "name": "isDeleted",
          "type": "bool"
        }
      ],
      "name": "deleteTweet",
      "outputs": [],
      "stateMutability": "nonpayable",
      "type": "function"
    },
    {
      "inputs": [],
      "name": "getAllTweets",
      "outputs": [
        {
          "components": [
            {
              "internalType": "uint256",
              "name": "id",
              "type": "uint256"
            },
            {
              "internalType": "address",
              "name": "username",
              "type": "address"
            },
            {
              "internalType": "string",
              "name": "tweetText",
              "type": "string"
            },
            {
              "internalType": "bool",
              "name": "isDeleted",
              "type": "bool"
            },
            {
              "internalType": "uint256",
              "name": "likeCount",
              "type": "uint256"
            },
            {
              "internalType": "bool",
              "name": "isLiked",
              "type": "bool"
            },
            {
              "internalType": "uint256",
              "name": "timestamp",
              "type": "uint256"
            }
          ],
          "internalType": "struct twitter.Tweet[]",
          "name": "",
          "type": "tuple[]"
        }
      ],
      "stateMutability": "view",
      "type": "function"
    },
    {
      "inputs": [],
      "name": "getMyTweets",
      "outputs": [
        {
          "components": [
            {
              "internalType": "uint256",
              "name": "id",
              "type": "uint256"
            },
            {
              "internalType": "address",
              "name": "username",
              "type": "address"
            },
            {
              "internalType": "string",
              "name": "tweetText",
              "type": "string"
            },
            {
              "internalType": "bool",
              "name": "isDeleted",
              "type": "bool"
            },
            {
              "internalType": "uint256",
              "name": "likeCount",
              "type": "uint256"
            },
            {
              "internalType": "bool",
              "name": "isLiked",
              "type": "bool"
            },
            {
              "internalType": "uint256",
              "name": "timestamp",
              "type": "uint256"
            }
          ],
          "internalType": "struct twitter.Tweet[]",
          "name": "",
          "type": "tuple[]"
        }
      ],
      "stateMutability": "view",
      "type": "function"
    },
    {
      "inputs": [
        {
          "internalType": "uint256",
          "name": "tweetId",
          "type": "uint256"
        }
      ],
      "name": "toggleLike",
      "outputs": [],
      "stateMutability": "nonpayable",
      "type": "function"
    }
  ],
  "bytecode": "0x608060405234801561001057600080fd5b506116d0806100206000396000f3fe608060405234801561001057600080fd5b50600436106100575760003560e01c8063323853ec1461005c578063532561351461007857806354398d1814610096578063aefedbc2146100b2578063f0312a37146100d0575b600080fd5b61007660048036038101906100719190610ee9565b6100ec565b005b6100806102bc565b60405161008d91906111a8565b60405180910390f35b6100b060048036038101906100ab91906111ca565b6106a1565b005b6100ba610799565b6040516100c791906111a8565b60405180910390f35b6100ea60048036038101906100e591906111f7565b610be9565b005b60008080549050905060006040518060e001604052808381526020013373ffffffffffffffffffffffffffffffffffffffff168152602001878152602001861515815260200185815260200184151581526020014281525090806001815401808255809150506001900390600052602060002090600702016000909190919091506000820151816000015560208201518160010160006101000a81548173ffffffffffffffffffffffffffffffffffffffff021916908373ffffffffffffffffffffffffffffffffffffffff16021790555060408201518160020190816101d39190611443565b5060608201518160030160006101000a81548160ff0219169083151502179055506080820151816004015560a08201518160050160006101000a81548160ff02191690831515021790555060c082015181600601555050336001600083815260200190815260200160002060006101000a81548173ffffffffffffffffffffffffffffffffffffffff021916908373ffffffffffffffffffffffffffffffffffffffff1602179055507f8b2db9b424f26463510ef5b02c16f2465836b52081b51d2112ec76102053bdea33826040516102ad929190611533565b60405180910390a15050505050565b60606000808054905067ffffffffffffffff8111156102de576102dd610d50565b5b60405190808252806020026020018201604052801561031757816020015b610304610cca565b8152602001906001900390816102fc5790505b5090506000805b60008054905081101561050c5760001515600082815481106103435761034261155c565b5b906000526020600020906007020160030160009054906101000a900460ff161515036104ff576000818154811061037d5761037c61155c565b5b90600052602060002090600702016040518060e0016040529081600082015481526020016001820160009054906101000a900473ffffffffffffffffffffffffffffffffffffffff1673ffffffffffffffffffffffffffffffffffffffff1673ffffffffffffffffffffffffffffffffffffffff16815260200160028201805461040690611266565b80601f016020809104026020016040519081016040528092919081815260200182805461043290611266565b801561047f5780601f106104545761010080835404028352916020019161047f565b820191906000526020600020905b81548152906001019060200180831161046257829003601f168201915b505050505081526020016003820160009054906101000a900460ff16151515158152602001600482015481526020016005820160009054906101000a900460ff161515151581526020016006820154815250508383815181106104e5576104e461155c565b5b602002602001018190525081806104fb906115ba565b9250505b808060010191505061031e565b5060008167ffffffffffffffff81111561052957610528610d50565b5b60405190808252806020026020018201604052801561056257816020015b61054f610cca565b8152602001906001900390816105475790505b50905060005b82811015610697578381815181106105835761058261155c565b5b602002602001015182828151811061059e5761059d61155c565b5b602002602001018190525060008482815181106105be576105bd61155c565b5b602002602001015160000151815481106105db576105da61155c565b5b906000526020600020906007020160050160009054906101000a900460ff1682828151811061060d5761060c61155c565b5b602002602001015160a001901515908115158152505060008482815181106106385761063761155c565b5b602002602001015160000151815481106106555761065461155c565b5b90600052602060002090600702016004015482828151811061067a5761067961155c565b5b602002602001015160800181815250508080600101915050610568565b5080935050505090565b60008082815481106106b6576106b561155c565b5b906000526020600020906007020190508060050160009054906101000a900460ff16158160050160006101000a81548160ff0219169083151502179055508060050160009054906101000a900460ff161561072a57806004016000815480929190610720906115ba565b9190505550610745565b80600401600081548092919061073f90611602565b91905055505b7f5fbbab78c8952dcaac61fecb1dfef40beacdd00f23d7d11b4cfbe3cd25d70598828260050160009054906101000a900460ff16836004015460405161078d9392919061163a565b60405180910390a15050565b60606000808054905067ffffffffffffffff8111156107bb576107ba610d50565b5b6040519080825280602002602001820160405280156107f457816020015b6107e1610cca565b8152602001906001900390816107d95790505b5090506000805b600080549050811015610a54573373ffffffffffffffffffffffffffffffffffffffff166001600083815260200190815260200160002060009054906101000a900473ffffffffffffffffffffffffffffffffffffffff1673ffffffffffffffffffffffffffffffffffffffff161480156108ac575060001515600082815481106108895761088861155c565b5b906000526020600020906007020160030160009054906101000a900460ff161515145b15610a4757600081815481106108c5576108c461155c565b5b90600052602060002090600702016040518060e0016040529081600082015481526020016001820160009054906101000a900473ffffffffffffffffffffffffffffffffffffffff1673ffffffffffffffffffffffffffffffffffffffff1673ffffffffffffffffffffffffffffffffffffffff16815260200160028201805461094e90611266565b80601f016020809104026020016040519081016040528092919081815260200182805461097a90611266565b80156109c75780601f1061099c576101008083540402835291602001916109c7565b820191906000526020600020905b8154815290600101906020018083116109aa57829003601f168201915b505050505081526020016003820160009054906101000a900460ff16151515158152602001600482015481526020016005820160009054906101000a900460ff16151515158152602001600682015481525050838381518110610a2d57610a2c61155c565b5b60200260200101819052508180610a43906115ba565b9250505b80806001019150506107fb565b5060008167ffffffffffffffff811115610a7157610a70610d50565b5b604051908082528060200260200182016040528015610aaa57816020015b610a97610cca565b815260200190600190039081610a8f5790505b50905060005b82811015610bdf57838181518110610acb57610aca61155c565b5b6020026020010151828281518110610ae657610ae561155c565b5b60200260200101819052506000848281518110610b0657610b0561155c565b5b60200260200101516000015181548110610b2357610b2261155c565b5b906000526020600020906007020160050160009054906101000a900460ff16828281518110610b5557610b5461155c565b5b602002602001015160a00190151590811515815250506000848281518110610b8057610b7f61155c565b5b60200260200101516000015181548110610b9d57610b9c61155c565b5b906000526020600020906007020160040154828281518110610bc257610bc161155c565b5b602002602001015160800181815250508080600101915050610ab0565b5080935050505090565b3373ffffffffffffffffffffffffffffffffffffffff166001600084815260200190815260200160002060009054906101000a900473ffffffffffffffffffffffffffffffffffffffff1673ffffffffffffffffffffffffffffffffffffffff1603610cc6578060008381548110610c6457610c6361155c565b5b906000526020600020906007020160030160006101000a81548160ff0219169083151502179055507f2430f837dd2fb40e08c064be9db3d0cf2a7a21f8fe716a2a41787dafc66a7e2a8282604051610cbd929190611671565b60405180910390a15b5050565b6040518060e0016040528060008152602001600073ffffffffffffffffffffffffffffffffffffffff1681526020016060815260200160001515815260200160008152602001600015158152602001600081525090565b6000604051905090565b600080fd5b600080fd5b600080fd5b600080fd5b6000601f19601f8301169050919050565b7f4e487b7100000000000000000000000000000000000000000000000000000000600052604160045260246000fd5b610d8882610d3f565b810181811067ffffffffffffffff82111715610da757610da6610d50565b5b80604052505050565b6000610dba610d21565b9050610dc68282610d7f565b919050565b600067ffffffffffffffff821115610de657610de5610d50565b5b610def82610d3f565b9050602081019050919050565b82818337600083830152505050565b6000610e1e610e1984610dcb565b610db0565b905082815260208101848484011115610e3a57610e39610d3a565b5b610e45848285610dfc565b509392505050565b600082601f830112610e6257610e61610d35565b5b8135610e72848260208601610e0b565b91505092915050565b60008115159050919050565b610e9081610e7b565b8114610e9b57600080fd5b50565b600081359050610ead81610e87565b92915050565b6000819050919050565b610ec681610eb3565b8114610ed157600080fd5b50565b600081359050610ee381610ebd565b92915050565b60008060008060808587031215610f0357610f02610d2b565b5b600085013567ffffffffffffffff811115610f2157610f20610d30565b5b610f2d87828801610e4d565b9450506020610f3e87828801610e9e565b9350506040610f4f87828801610ed4565b9250506060610f6087828801610e9e565b91505092959194509250565b600081519050919050565b600082825260208201905092915050565b6000819050602082019050919050565b610fa181610eb3565b82525050565b600073ffffffffffffffffffffffffffffffffffffffff82169050919050565b6000610fd282610fa7565b9050919050565b610fe281610fc7565b82525050565b600081519050919050565b600082825260208201905092915050565b60005b83811015611022578082015181840152602081019050611007565b60008484015250505050565b600061103982610fe8565b6110438185610ff3565b9350611053818560208601611004565b61105c81610d3f565b840191505092915050565b61107081610e7b565b82525050565b600060e08301600083015161108e6000860182610f98565b5060208301516110a16020860182610fd9565b50604083015184820360408601526110b9828261102e565b91505060608301516110ce6060860182611067565b5060808301516110e16080860182610f98565b5060a08301516110f460a0860182611067565b5060c083015161110760c0860182610f98565b508091505092915050565b600061111e8383611076565b905092915050565b6000602082019050919050565b600061113e82610f6c565b6111488185610f77565b93508360208202850161115a85610f88565b8060005b8581101561119657848403895281516111778582611112565b945061118283611126565b925060208a0199505060018101905061115e565b50829750879550505050505092915050565b600060208201905081810360008301526111c28184611133565b905092915050565b6000602082840312156111e0576111df610d2b565b5b60006111ee84828501610ed4565b91505092915050565b6000806040838503121561120e5761120d610d2b565b5b600061121c85828601610ed4565b925050602061122d85828601610e9e565b9150509250929050565b7f4e487b7100000000000000000000000000000000000000000000000000000000600052602260045260246000fd5b6000600282049050600182168061127e57607f821691505b60208210810361129157611290611237565b5b50919050565b60008190508160005260206000209050919050565b60006020601f8301049050919050565b600082821b905092915050565b6000600883026112f97fffffffffffffffffffffffffffffffffffffffffffffffffffffffffffffffff826112bc565b61130386836112bc565b95508019841693508086168417925050509392505050565b6000819050919050565b600061134061133b61133684610eb3565b61131b565b610eb3565b9050919050565b6000819050919050565b61135a83611325565b61136e61136682611347565b8484546112c9565b825550505050565b600090565b611383611376565b61138e818484611351565b505050565b5b818110156113b2576113a760008261137b565b600181019050611394565b5050565b601f8211156113f7576113c881611297565b6113d1846112ac565b810160208510156113e0578190505b6113f46113ec856112ac565b830182611393565b50505b505050565b600082821c905092915050565b600061141a600019846008026113fc565b1980831691505092915050565b60006114338383611409565b9150826002028217905092915050565b61144c82610fe8565b67ffffffffffffffff81111561146557611464610d50565b5b61146f8254611266565b61147a8282856113b6565b600060209050601f8311600181146114ad576000841561149b578287015190505b6114a58582611427565b86555061150d565b601f1984166114bb86611297565b60005b828110156114e3578489015182556001820191506020850194506020810190506114be565b8683101561150057848901516114fc601f891682611409565b8355505b6001600288020188555050505b505050505050565b61151e81610fc7565b82525050565b61152d81610eb3565b82525050565b60006040820190506115486000830185611515565b6115556020830184611524565b9392505050565b7f4e487b7100000000000000000000000000000000000000000000000000000000600052603260045260246000fd5b7f4e487b7100000000000000000000000000000000000000000000000000000000600052601160045260246000fd5b60006115c582610eb3565b91507fffffffffffffffffffffffffffffffffffffffffffffffffffffffffffffffff82036115f7576115f661158b565b5b600182019050919050565b600061160d82610eb3565b9150600082036116205761161f61158b565b5b600182039050919050565b61163481610e7b565b82525050565b600060608201905061164f6000830186611524565b61165c602083018561162b565b6116696040830184611524565b949350505050565b60006040820190506116866000830185611524565b611693602083018461162b565b939250505056fea2646970667358221220fca53fb46c4e992b1775140d4f13122139e4ce4cc0d37aa435726d592f535ea164736f6c63430008180033",
  "linkReferences": {},
  "deployedLinkReferences": {}
}