{
  "_format": "hh-sol-artifact-1",
  "contractName": "twitter",
  "sourceName": "contracts/twitter.sol",
  "abi": [
    {
      "anonymous": false,
      "inputs": [
        {
          "indexed": false,
          "internalType": "address",
          "name": "recipient",
          "type": "address"
        },
        {
          "indexed": false,
          "internalType": "uint256",
          "name": "tweetId",
          "type": "uint256"
        }
      ],
      "name": "AddTweet",
      "type": "event"
    },
    {
      "anonymous": false,
      "inputs": [
        {
          "indexed": false,
          "internalType": "uint256",
          "name": "tweetId",
          "type": "uint256"
        },
        {
          "indexed": false,
          "internalType": "bool",
          "name": "isDeleted",
          "type": "bool"
        }
      ],
      "name": "DeleteTweet",
      "type": "event"
    },
    {
      "inputs": [
        {
          "internalType": "string",
          "name": "tweetText",
          "type": "string"
        },
        {
          "internalType": "bool",
          "name": "isDeleted",
          "type": "bool"
        }
      ],
      "name": "addTweet",
      "outputs": [],
      "stateMutability": "nonpayable",
      "type": "function"
    },
    {
      "inputs": [
        {
          "internalType": "uint256",
          "name": "tweetId",
          "type": "uint256"
        },
        {
          "internalType": "bool",
          "name": "isDeleted",
          "type": "bool"
        }
      ],
      "name": "deleteTweet",
      "outputs": [],
      "stateMutability": "nonpayable",
      "type": "function"
    },
    {
      "inputs": [],
      "name": "getAllTweets",
      "outputs": [
        {
          "components": [
            {
              "internalType": "uint256",
              "name": "id",
              "type": "uint256"
            },
            {
              "internalType": "address",
              "name": "username",
              "type": "address"
            },
            {
              "internalType": "string",
              "name": "tweetText",
              "type": "string"
            },
            {
              "internalType": "bool",
              "name": "isDeleted",
              "type": "bool"
            }
          ],
          "internalType": "struct twitter.Tweet[]",
          "name": "",
          "type": "tuple[]"
        }
      ],
      "stateMutability": "view",
      "type": "function"
    },
    {
      "inputs": [],
      "name": "getMyTweets",
      "outputs": [
        {
          "components": [
            {
              "internalType": "uint256",
              "name": "id",
              "type": "uint256"
            },
            {
              "internalType": "address",
              "name": "username",
              "type": "address"
            },
            {
              "internalType": "string",
              "name": "tweetText",
              "type": "string"
            },
            {
              "internalType": "bool",
              "name": "isDeleted",
              "type": "bool"
            }
          ],
          "internalType": "struct twitter.Tweet[]",
          "name": "",
          "type": "tuple[]"
        }
      ],
      "stateMutability": "view",
      "type": "function"
    }
  ],
  "bytecode": "0x608060405234801561001057600080fd5b50611243806100206000396000f3fe608060405234801561001057600080fd5b506004361061004c5760003560e01c80635325613514610051578063aefedbc21461006f578063e580339f1461008d578063f0312a37146100a9575b600080fd5b6100596100c5565b6040516100669190610bab565b60405180910390f35b61007761039a565b6040516100849190610bab565b60405180910390f35b6100a760048036038101906100a29190610d42565b6106da565b005b6100c360048036038101906100be9190610dca565b610860565b005b60606000808054905067ffffffffffffffff8111156100e7576100e6610beb565b5b60405190808252806020026020018201604052801561012057816020015b61010d610941565b8152602001906001900390816101055790505b5090506000805b6000805490508110156102e657600015156000828154811061014c5761014b610e0a565b5b906000526020600020906004020160030160009054906101000a900460ff161515036102d9576000818154811061018657610185610e0a565b5b9060005260206000209060040201604051806080016040529081600082015481526020016001820160009054906101000a900473ffffffffffffffffffffffffffffffffffffffff1673ffffffffffffffffffffffffffffffffffffffff1673ffffffffffffffffffffffffffffffffffffffff16815260200160028201805461020f90610e68565b80601f016020809104026020016040519081016040528092919081815260200182805461023b90610e68565b80156102885780601f1061025d57610100808354040283529160200191610288565b820191906000526020600020905b81548152906001019060200180831161026b57829003601f168201915b505050505081526020016003820160009054906101000a900460ff1615151515815250508383815181106102bf576102be610e0a565b5b602002602001018190525081806102d590610ec8565b9250505b8080600101915050610127565b5060008167ffffffffffffffff81111561030357610302610beb565b5b60405190808252806020026020018201604052801561033c57816020015b610329610941565b8152602001906001900390816103215790505b50905060005b828110156103905783818151811061035d5761035c610e0a565b5b602002602001015182828151811061037857610377610e0a565b5b60200260200101819052508080600101915050610342565b5080935050505090565b60606000808054905067ffffffffffffffff8111156103bc576103bb610beb565b5b6040519080825280602002602001820160405280156103f557816020015b6103e2610941565b8152602001906001900390816103da5790505b5090506000805b600080549050811015610626573373ffffffffffffffffffffffffffffffffffffffff166001600083815260200190815260200160002060009054906101000a900473ffffffffffffffffffffffffffffffffffffffff1673ffffffffffffffffffffffffffffffffffffffff161480156104ad5750600015156000828154811061048a57610489610e0a565b5b906000526020600020906004020160030160009054906101000a900460ff161515145b1561061957600081815481106104c6576104c5610e0a565b5b9060005260206000209060040201604051806080016040529081600082015481526020016001820160009054906101000a900473ffffffffffffffffffffffffffffffffffffffff1673ffffffffffffffffffffffffffffffffffffffff1673ffffffffffffffffffffffffffffffffffffffff16815260200160028201805461054f90610e68565b80601f016020809104026020016040519081016040528092919081815260200182805461057b90610e68565b80156105c85780601f1061059d576101008083540402835291602001916105c8565b820191906000526020600020905b8154815290600101906020018083116105ab57829003601f168201915b505050505081526020016003820160009054906101000a900460ff1615151515815250508383815181106105ff576105fe610e0a565b5b6020026020010181905250818061061590610ec8565b9250505b80806001019150506103fc565b5060008167ffffffffffffffff81111561064357610642610beb565b5b60405190808252806020026020018201604052801561067c57816020015b610669610941565b8152602001906001900390816106615790505b50905060005b828110156106d05783818151811061069d5761069c610e0a565b5b60200260200101518282815181106106b8576106b7610e0a565b5b60200260200101819052508080600101915050610682565b5080935050505090565b600080805490509050600060405180608001604052808381526020013373ffffffffffffffffffffffffffffffffffffffff16815260200185815260200184151581525090806001815401808255809150506001900390600052602060002090600402016000909190919091506000820151816000015560208201518160010160006101000a81548173ffffffffffffffffffffffffffffffffffffffff021916908373ffffffffffffffffffffffffffffffffffffffff16021790555060408201518160020190816107ad91906110bc565b5060608201518160030160006101000a81548160ff0219169083151502179055505050336001600083815260200190815260200160002060006101000a81548173ffffffffffffffffffffffffffffffffffffffff021916908373ffffffffffffffffffffffffffffffffffffffff1602179055507f8b2db9b424f26463510ef5b02c16f2465836b52081b51d2112ec76102053bdea33826040516108539291906111ac565b60405180910390a1505050565b3373ffffffffffffffffffffffffffffffffffffffff166001600084815260200190815260200160002060009054906101000a900473ffffffffffffffffffffffffffffffffffffffff1673ffffffffffffffffffffffffffffffffffffffff160361093d5780600083815481106108db576108da610e0a565b5b906000526020600020906004020160030160006101000a81548160ff0219169083151502179055507f2430f837dd2fb40e08c064be9db3d0cf2a7a21f8fe716a2a41787dafc66a7e2a82826040516109349291906111e4565b60405180910390a15b5050565b604051806080016040528060008152602001600073ffffffffffffffffffffffffffffffffffffffff168152602001606081526020016000151581525090565b600081519050919050565b600082825260208201905092915050565b6000819050602082019050919050565b6000819050919050565b6109c0816109ad565b82525050565b600073ffffffffffffffffffffffffffffffffffffffff82169050919050565b60006109f1826109c6565b9050919050565b610a01816109e6565b82525050565b600081519050919050565b600082825260208201905092915050565b60005b83811015610a41578082015181840152602081019050610a26565b60008484015250505050565b6000601f19601f8301169050919050565b6000610a6982610a07565b610a738185610a12565b9350610a83818560208601610a23565b610a8c81610a4d565b840191505092915050565b60008115159050919050565b610aac81610a97565b82525050565b6000608083016000830151610aca60008601826109b7565b506020830151610add60208601826109f8565b5060408301518482036040860152610af58282610a5e565b9150506060830151610b0a6060860182610aa3565b508091505092915050565b6000610b218383610ab2565b905092915050565b6000602082019050919050565b6000610b4182610981565b610b4b818561098c565b935083602082028501610b5d8561099d565b8060005b85811015610b995784840389528151610b7a8582610b15565b9450610b8583610b29565b925060208a01995050600181019050610b61565b50829750879550505050505092915050565b60006020820190508181036000830152610bc58184610b36565b905092915050565b6000604051905090565b600080fd5b600080fd5b600080fd5b600080fd5b7f4e487b7100000000000000000000000000000000000000000000000000000000600052604160045260246000fd5b610c2382610a4d565b810181811067ffffffffffffffff82111715610c4257610c41610beb565b5b80604052505050565b6000610c55610bcd565b9050610c618282610c1a565b919050565b600067ffffffffffffffff821115610c8157610c80610beb565b5b610c8a82610a4d565b9050602081019050919050565b82818337600083830152505050565b6000610cb9610cb484610c66565b610c4b565b905082815260208101848484011115610cd557610cd4610be6565b5b610ce0848285610c97565b509392505050565b600082601f830112610cfd57610cfc610be1565b5b8135610d0d848260208601610ca6565b91505092915050565b610d1f81610a97565b8114610d2a57600080fd5b50565b600081359050610d3c81610d16565b92915050565b60008060408385031215610d5957610d58610bd7565b5b600083013567ffffffffffffffff811115610d7757610d76610bdc565b5b610d8385828601610ce8565b9250506020610d9485828601610d2d565b9150509250929050565b610da7816109ad565b8114610db257600080fd5b50565b600081359050610dc481610d9e565b92915050565b60008060408385031215610de157610de0610bd7565b5b6000610def85828601610db5565b9250506020610e0085828601610d2d565b9150509250929050565b7f4e487b7100000000000000000000000000000000000000000000000000000000600052603260045260246000fd5b7f4e487b7100000000000000000000000000000000000000000000000000000000600052602260045260246000fd5b60006002820490506001821680610e8057607f821691505b602082108103610e9357610e92610e39565b5b50919050565b7f4e487b7100000000000000000000000000000000000000000000000000000000600052601160045260246000fd5b6000610ed3826109ad565b91507fffffffffffffffffffffffffffffffffffffffffffffffffffffffffffffffff8203610f0557610f04610e99565b5b600182019050919050565b60008190508160005260206000209050919050565b60006020601f8301049050919050565b600082821b905092915050565b600060088302610f727fffffffffffffffffffffffffffffffffffffffffffffffffffffffffffffffff82610f35565b610f7c8683610f35565b95508019841693508086168417925050509392505050565b6000819050919050565b6000610fb9610fb4610faf846109ad565b610f94565b6109ad565b9050919050565b6000819050919050565b610fd383610f9e565b610fe7610fdf82610fc0565b848454610f42565b825550505050565b600090565b610ffc610fef565b611007818484610fca565b505050565b5b8181101561102b57611020600082610ff4565b60018101905061100d565b5050565b601f8211156110705761104181610f10565b61104a84610f25565b81016020851015611059578190505b61106d61106585610f25565b83018261100c565b50505b505050565b600082821c905092915050565b600061109360001984600802611075565b1980831691505092915050565b60006110ac8383611082565b9150826002028217905092915050565b6110c582610a07565b67ffffffffffffffff8111156110de576110dd610beb565b5b6110e88254610e68565b6110f382828561102f565b600060209050601f8311600181146111265760008415611114578287015190505b61111e85826110a0565b865550611186565b601f19841661113486610f10565b60005b8281101561115c57848901518255600182019150602085019450602081019050611137565b868310156111795784890151611175601f891682611082565b8355505b6001600288020188555050505b505050505050565b611197816109e6565b82525050565b6111a6816109ad565b82525050565b60006040820190506111c1600083018561118e565b6111ce602083018461119d565b9392505050565b6111de81610a97565b82525050565b60006040820190506111f9600083018561119d565b61120660208301846111d5565b939250505056fea26469706673582212209f2f265edfebdc624d2f8526d219e64d7e51088bc2175011ac04ea3599ff28f464736f6c63430008180033",
  "linkReferences": {},
  "deployedLinkReferences": {}
}